{
  "_format": "hh-sol-artifact-1",
  "contractName": "BlindTokenVault",
  "sourceName": "contracts/BlindTokenVault.sol",
  "abi": [
    {
      "inputs": [],
      "stateMutability": "nonpayable",
      "type": "constructor"
    },
    {
      "anonymous": false,
      "inputs": [
        {
          "indexed": true,
          "internalType": "bytes32",
          "name": "commitment",
          "type": "bytes32"
        }
      ],
      "name": "TokenMinted",
      "type": "event"
    },
    {
      "anonymous": false,
      "inputs": [
        {
          "indexed": true,
          "internalType": "bytes32",
          "name": "commitment",
          "type": "bytes32"
        },
        {
          "indexed": true,
          "internalType": "address",
          "name": "redeemer",
          "type": "address"
        }
      ],
      "name": "TokenRedeemed",
      "type": "event"
    },
    {
      "inputs": [
        {
          "internalType": "bytes32",
          "name": "",
          "type": "bytes32"
        }
      ],
      "name": "commitments",
      "outputs": [
        {
          "internalType": "bool",
          "name": "",
          "type": "bool"
        }
      ],
      "stateMutability": "view",
      "type": "function"
    },
    {
      "inputs": [
        {
          "internalType": "bytes32",
          "name": "commitment",
          "type": "bytes32"
        }
      ],
      "name": "isValid",
      "outputs": [
        {
          "internalType": "bool",
          "name": "",
          "type": "bool"
        }
      ],
      "stateMutability": "view",
      "type": "function"
    },
    {
      "inputs": [
        {
          "internalType": "bytes32[]",
          "name": "_commitments",
          "type": "bytes32[]"
        }
      ],
      "name": "mintBatch",
      "outputs": [],
      "stateMutability": "nonpayable",
      "type": "function"
    },
    {
      "inputs": [
        {
          "internalType": "bytes32",
          "name": "commitment",
          "type": "bytes32"
        }
      ],
      "name": "mintCommitment",
      "outputs": [],
      "stateMutability": "nonpayable",
      "type": "function"
    },
    {
      "inputs": [],
      "name": "owner",
      "outputs": [
        {
          "internalType": "address",
          "name": "",
          "type": "address"
        }
      ],
      "stateMutability": "view",
      "type": "function"
    },
    {
      "inputs": [
        {
          "internalType": "bytes32",
          "name": "preimage",
          "type": "bytes32"
        }
      ],
      "name": "redeem",
      "outputs": [],
      "stateMutability": "nonpayable",
      "type": "function"
    },
    {
      "inputs": [
        {
          "internalType": "bytes32",
          "name": "",
          "type": "bytes32"
        }
      ],
      "name": "redeemed",
      "outputs": [
        {
          "internalType": "bool",
          "name": "",
          "type": "bool"
        }
      ],
      "stateMutability": "view",
      "type": "function"
    }
  ],
  "bytecode": "0x608060405234801561001057600080fd5b50336000806101000a81548173ffffffffffffffffffffffffffffffffffffffff021916908373ffffffffffffffffffffffffffffffffffffffff160217905550610aab806100606000396000f3fe608060405234801561001057600080fd5b506004361061007d5760003560e01c80638da5cb5b1161005b5780638da5cb5b14610112578063bdc4909514610130578063e62f94671461014c578063eda1122c146101685761007d565b80633d8b9e07146100825780636a938567146100b2578063839df945146100e2575b600080fd5b61009c600480360381019061009791906106d8565b610184565b6040516100a99190610720565b60405180910390f35b6100cc60048036038101906100c791906106d8565b6101a4565b6040516100d99190610720565b60405180910390f35b6100fc60048036038101906100f791906106d8565b6101f8565b6040516101099190610720565b60405180910390f35b61011a610218565b604051610127919061077c565b60405180910390f35b61014a600480360381019061014591906107fc565b61023c565b005b610166600480360381019061016191906106d8565b6103ee565b005b610182600480360381019061017d91906106d8565b610538565b005b60026020528060005260406000206000915054906101000a900460ff1681565b60006001600083815260200190815260200160002060009054906101000a900460ff1680156101f157506002600083815260200190815260200160002060009054906101000a900460ff16155b9050919050565b60016020528060005260406000206000915054906101000a900460ff1681565b60008054906101000a900473ffffffffffffffffffffffffffffffffffffffff1681565b60008054906101000a900473ffffffffffffffffffffffffffffffffffffffff1673ffffffffffffffffffffffffffffffffffffffff163373ffffffffffffffffffffffffffffffffffffffff16146102ca576040517f08c379a00000000000000000000000000000000000000000000000000000000081526004016102c1906108a6565b60405180910390fd5b60005b828290508110156103e957600160008484848181106102ef576102ee6108c6565b5b90506020020135815260200190815260200160002060009054906101000a900460ff1615610352576040517f08c379a000000000000000000000000000000000000000000000000000000000815260040161034990610941565b60405180910390fd5b600180600085858581811061036a576103696108c6565b5b90506020020135815260200190815260200160002060006101000a81548160ff0219169083151502179055508282828181106103a9576103a86108c6565b5b905060200201357fb1e58ec233fcb595cbdedc235c99d185a40018524835653a62062f95c2ef45c960405160405180910390a280806001019150506102cd565b505050565b60008054906101000a900473ffffffffffffffffffffffffffffffffffffffff1673ffffffffffffffffffffffffffffffffffffffff163373ffffffffffffffffffffffffffffffffffffffff161461047c576040517f08c379a0000000000000000000000000000000000000000000000000000000008152600401610473906108a6565b60405180910390fd5b6001600082815260200190815260200160002060009054906101000a900460ff16156104dd576040517f08c379a00000000000000000000000000000000000000000000000000000000081526004016104d490610941565b60405180910390fd5b600180600083815260200190815260200160002060006101000a81548160ff021916908315150217905550807fb1e58ec233fcb595cbdedc235c99d185a40018524835653a62062f95c2ef45c960405160405180910390a250565b60008160405160200161054b9190610982565b6040516020818303038152906040528051906020012090506001600082815260200190815260200160002060009054906101000a900460ff166105c3576040517f08c379a00000000000000000000000000000000000000000000000000000000081526004016105ba906109e9565b60405180910390fd5b6002600082815260200190815260200160002060009054906101000a900460ff1615610624576040517f08c379a000000000000000000000000000000000000000000000000000000000815260040161061b90610a55565b60405180910390fd5b60016002600083815260200190815260200160002060006101000a81548160ff0219169083151502179055503373ffffffffffffffffffffffffffffffffffffffff16817f0f7c50d316885e5d3719752f760bbbbf7d56363501e721eea4d913e255b632e460405160405180910390a35050565b600080fd5b600080fd5b6000819050919050565b6106b5816106a2565b81146106c057600080fd5b50565b6000813590506106d2816106ac565b92915050565b6000602082840312156106ee576106ed610698565b5b60006106fc848285016106c3565b91505092915050565b60008115159050919050565b61071a81610705565b82525050565b60006020820190506107356000830184610711565b92915050565b600073ffffffffffffffffffffffffffffffffffffffff82169050919050565b60006107668261073b565b9050919050565b6107768161075b565b82525050565b6000602082019050610791600083018461076d565b92915050565b600080fd5b600080fd5b600080fd5b60008083601f8401126107bc576107bb610797565b5b8235905067ffffffffffffffff8111156107d9576107d861079c565b5b6020830191508360208202830111156107f5576107f46107a1565b5b9250929050565b6000806020838503121561081357610812610698565b5b600083013567ffffffffffffffff8111156108315761083061069d565b5b61083d858286016107a6565b92509250509250929050565b600082825260208201905092915050565b7f6e6f74206f776e65720000000000000000000000000000000000000000000000600082015250565b6000610890600983610849565b915061089b8261085a565b602082019050919050565b600060208201905081810360008301526108bf81610883565b9050919050565b7f4e487b7100000000000000000000000000000000000000000000000000000000600052603260045260246000fd5b7f616c7265616479206d696e746564000000000000000000000000000000000000600082015250565b600061092b600e83610849565b9150610936826108f5565b602082019050919050565b6000602082019050818103600083015261095a8161091e565b9050919050565b6000819050919050565b61097c610977826106a2565b610961565b82525050565b600061098e828461096b565b60208201915081905092915050565b7f756e6b6e6f776e20636f6d6d69746d656e740000000000000000000000000000600082015250565b60006109d3601283610849565b91506109de8261099d565b602082019050919050565b60006020820190508181036000830152610a02816109c6565b9050919050565b7f616c72656164792072656465656d656400000000000000000000000000000000600082015250565b6000610a3f601083610849565b9150610a4a82610a09565b602082019050919050565b60006020820190508181036000830152610a6e81610a32565b905091905056fea2646970667358221220bb3f4e8f320ab2086bc643de8e71fe504aecbd75823076dcafdfc491e04f05b564736f6c63430008180033",
  "linkReferences": {},
  "deployedLinkReferences": {}
}