{"contracts/AuditLog.sol":{"AuditLog":{"abi":[{"anonymous":false,"inputs":[{"indexed":true,"internalType":"bytes32","name":"circuitId","type":"bytes32"},{"indexed":false,"internalType":"bytes32","name":"payloadHash","type":"bytes32"},{"indexed":false,"internalType":"address","name":"relay","type":"address"}],"name":"EntryLogged","type":"event"},{"inputs":[{"internalType":"uint256","name":"","type":"uint256"}],"name":"entries","outputs":[{"internalType":"bytes32","name":"payloadHash","type":"bytes32"},{"internalType":"bytes32","name":"circuitId","type":"bytes32"},{"internalType":"uint256","name":"timestamp","type":"uint256"},{"internalType":"address","name":"relay","type":"address"}],"stateMutability":"view","type":"function"},{"inputs":[],"name":"entryCount","outputs":[{"internalType":"uint256","name":"","type":"uint256"}],"stateMutability":"view","type":"function"},{"inputs":[{"internalType":"uint256","name":"offset","type":"uint256"},{"internalType":"uint256","name":"limit","type":"uint256"}],"name":"getEntries","outputs":[{"components":[{"internalType":"bytes32","name":"payloadHash","type":"bytes32"},{"internalType":"bytes32","name":"circuitId","type":"bytes32"},{"internalType":"uint256","name":"timestamp","type":"uint256"},{"internalType":"address","name":"relay","type":"address"}],"internalType":"struct AuditLog.LogEntry[]","name":"","type":"tuple[]"}],"stateMutability":"view","type":"function"},{"inputs":[{"internalType":"bytes32","name":"payloadHash","type":"bytes32"},{"internalType":"bytes32","name":"circuitId","type":"bytes32"}],"name":"log","outputs":[],"stateMutability":"nonpayable","type":"function"}],"evm":{"bytecode":{"linkReferences":{},"object":"608060405234801561001057600080fd5b506108b7806100206000396000f3fe608060405234801561001057600080fd5b506004361061004c5760003560e01c80630cbb0f8314610051578063478e8dad1461006f5780634c72b9981461009f578063b30906d4146100bb575b600080fd5b6100596100ee565b604051610066919061044c565b60405180910390f35b61008960048036038101906100849190610498565b6100fa565b6040516100969190610645565b60405180910390f35b6100b960048036038101906100b49190610693565b610288565b005b6100d560048036038101906100d091906106d3565b61038f565b6040516100e5949392919061071e565b60405180910390f35b60008080549050905090565b60606000828461010a9190610792565b90506000805490508111156101225760008054905090505b600084821161013257600061013f565b848261013e91906107c6565b5b905060008167ffffffffffffffff81111561015d5761015c6107fa565b5b60405190808252806020026020018201604052801561019657816020015b6101836103ef565b81526020019060019003908161017b5790505b50905060005b8281101561027b57600081886101b29190610792565b815481106101c3576101c2610829565b5b90600052602060002090600402016040518060800160405290816000820154815260200160018201548152602001600282015481526020016003820160009054906101000a900473ffffffffffffffffffffffffffffffffffffffff1673ffffffffffffffffffffffffffffffffffffffff1673ffffffffffffffffffffffffffffffffffffffff168152505082828151811061026357610262610829565b5b6020026020010181905250808060010191505061019c565b5080935050505092915050565b600060405180608001604052808481526020018381526020014281526020013373ffffffffffffffffffffffffffffffffffffffff16815250908060018154018082558091505060019003906000526020600020906004020160009091909190915060008201518160000155602082015181600101556040820151816002015560608201518160030160006101000a81548173ffffffffffffffffffffffffffffffffffffffff021916908373ffffffffffffffffffffffffffffffffffffffff1602179055505050807f2b48f8682d51d601b5631abd134b6bd5b85873be4fb792c499bc2ee30d1a2a308333604051610383929190610858565b60405180910390a25050565b6000818154811061039f57600080fd5b90600052602060002090600402016000915090508060000154908060010154908060020154908060030160009054906101000a900473ffffffffffffffffffffffffffffffffffffffff16905084565b6040518060800160405280600080191681526020016000801916815260200160008152602001600073ffffffffffffffffffffffffffffffffffffffff1681525090565b6000819050919050565b61044681610433565b82525050565b6000602082019050610461600083018461043d565b92915050565b600080fd5b61047581610433565b811461048057600080fd5b50565b6000813590506104928161046c565b92915050565b600080604083850312156104af576104ae610467565b5b60006104bd85828601610483565b92505060206104ce85828601610483565b9150509250929050565b600081519050919050565b600082825260208201905092915050565b6000819050602082019050919050565b6000819050919050565b61051781610504565b82525050565b61052681610433565b82525050565b600073ffffffffffffffffffffffffffffffffffffffff82169050919050565b60006105578261052c565b9050919050565b6105678161054c565b82525050565b608082016000820151610583600085018261050e565b506020820151610596602085018261050e565b5060408201516105a9604085018261051d565b5060608201516105bc606085018261055e565b50505050565b60006105ce838361056d565b60808301905092915050565b6000602082019050919050565b60006105f2826104d8565b6105fc81856104e3565b9350610607836104f4565b8060005b8381101561063857815161061f88826105c2565b975061062a836105da565b92505060018101905061060b565b5085935050505092915050565b6000602082019050818103600083015261065f81846105e7565b905092915050565b61067081610504565b811461067b57600080fd5b50565b60008135905061068d81610667565b92915050565b600080604083850312156106aa576106a9610467565b5b60006106b88582860161067e565b92505060206106c98582860161067e565b9150509250929050565b6000602082840312156106e9576106e8610467565b5b60006106f784828501610483565b91505092915050565b61070981610504565b82525050565b6107188161054c565b82525050565b60006080820190506107336000830187610700565b6107406020830186610700565b61074d604083018561043d565b61075a606083018461070f565b95945050505050565b7f4e487b7100000000000000000000000000000000000000000000000000000000600052601160045260246000fd5b600061079d82610433565b91506107a883610433565b92508282019050808211156107c0576107bf610763565b5b92915050565b60006107d182610433565b91506107dc83610433565b92508282039050818111156107f4576107f3610763565b5b92915050565b7f4e487b7100000000000000000000000000000000000000000000000000000000600052604160045260246000fd5b7f4e487b7100000000000000000000000000000000000000000000000000000000600052603260045260246000fd5b600060408201905061086d6000830185610700565b61087a602083018461070f565b939250505056fea26469706673582212203c0735b06cdeae2427d617b2fa86c9f2d2f39ec661a9ccb8636d7035fd81024364736f6c63430008180033","opcodes":"PUSH1 0x80 PUSH1 0x40 MSTORE CALLVALUE DUP1 ISZERO PUSH2 0x10 JUMPI PUSH1 0x0 DUP1 REVERT JUMPDEST POP PUSH2 0x8B7 DUP1 PUSH2 0x20 PUSH1 0x0 CODECOPY PUSH1 0x0 RETURN INVALID PUSH1 0x80 PUSH1 0x40 MSTORE CALLVALUE DUP1 ISZERO PUSH2 0x10 JUMPI PUSH1 0x0 DUP1 REVERT JUMPDEST POP PUSH1 0x4 CALLDATASIZE LT PUSH2 0x4C JUMPI PUSH1 0x0 CALLDATALOAD PUSH1 0xE0 SHR DUP1 PUSH4 0xCBB0F83 EQ PUSH2 0x51 JUMPI DUP1 PUSH4 0x478E8DAD EQ PUSH2 0x6F JUMPI DUP1 PUSH4 0x4C72B998 EQ PUSH2 0x9F JUMPI DUP1 PUSH4 0xB30906D4 EQ PUSH2 0xBB JUMPI JUMPDEST PUSH1 0x0 DUP1 REVERT JUMPDEST PUSH2 0x59 PUSH2 0xEE JUMP JUMPDEST PUSH1 0x40 MLOAD PUSH2 0x66 SWAP2 SWAP1 PUSH2 0x44C JUMP JUMPDEST PUSH1 0x40 MLOAD DUP1 SWAP2 SUB SWAP1 RETURN JUMPDEST PUSH2 0x89 PUSH1 0x4 DUP1 CALLDATASIZE SUB DUP2 ADD SWAP1 PUSH2 0x84 SWAP2 SWAP1 PUSH2 0x498 JUMP JUMPDEST PUSH2 0xFA JUMP JUMPDEST PUSH1 0x40 MLOAD PUSH2 0x96 SWAP2 SWAP1 PUSH2 0x645 JUMP JUMPDEST PUSH1 0x40 MLOAD DUP1 SWAP2 SUB SWAP1 RETURN JUMPDEST PUSH2 0xB9 PUSH1 0x4 DUP1 CALLDATASIZE SUB DUP2 ADD SWAP1 PUSH2 0xB4 SWAP2 SWAP1 PUSH2 0x693 JUMP JUMPDEST PUSH2 0x288 JUMP JUMPDEST STOP JUMPDEST PUSH2 0xD5 PUSH1 0x4 DUP1 CALLDATASIZE SUB DUP2 ADD SWAP1 PUSH2 0xD0 SWAP2 SWAP1 PUSH2 0x6D3 JUMP JUMPDEST PUSH2 0x38F JUMP JUMPDEST PUSH1 0x40 MLOAD PUSH2 0xE5 SWAP5 SWAP4 SWAP3 SWAP2 SWAP1 PUSH2 0x71E JUMP JUMPDEST PUSH1 0x40 MLOAD DUP1 SWAP2 SUB SWAP1 RETURN JUMPDEST PUSH1 0x0 DUP1 DUP1 SLOAD SWAP1 POP SWAP1 POP SWAP1 JUMP JUMPDEST PUSH1 0x60 PUSH1 0x0 DUP3 DUP5 PUSH2 0x10A SWAP2 SWAP1 PUSH2 0x792 JUMP JUMPDEST SWAP1 POP PUSH1 0x0 DUP1 SLOAD SWAP1 POP DUP2 GT ISZERO PUSH2 0x122 JUMPI PUSH1 0x0 DUP1 SLOAD SWAP1 POP SWAP1 POP JUMPDEST PUSH1 0x0 DUP5 DUP3 GT PUSH2 0x132 JUMPI PUSH1 0x0 PUSH2 0x13F JUMP JUMPDEST DUP5 DUP3 PUSH2 0x13E SWAP2 SWAP1 PUSH2 0x7C6 JUMP JUMPDEST JUMPDEST SWAP1 POP PUSH1 0x0 DUP2 PUSH8 0xFFFFFFFFFFFFFFFF DUP2 GT ISZERO PUSH2 0x15D JUMPI PUSH2 0x15C PUSH2 0x7FA JUMP JUMPDEST JUMPDEST PUSH1 0x40 MLOAD SWAP1 DUP1 DUP3 MSTORE DUP1 PUSH1 0x20 MUL PUSH1 0x20 ADD DUP3 ADD PUSH1 0x40 MSTORE DUP1 ISZERO PUSH2 0x196 JUMPI DUP2 PUSH1 0x20 ADD JUMPDEST PUSH2 0x183 PUSH2 0x3EF JUMP JUMPDEST DUP2 MSTORE PUSH1 0x20 ADD SWAP1 PUSH1 0x1 SWAP1 SUB SWAP1 DUP2 PUSH2 0x17B JUMPI SWAP1 POP JUMPDEST POP SWAP1 POP PUSH1 0x0 JUMPDEST DUP3 DUP2 LT ISZERO PUSH2 0x27B JUMPI PUSH1 0x0 DUP2 DUP9 PUSH2 0x1B2 SWAP2 SWAP1 PUSH2 0x792 JUMP JUMPDEST DUP2 SLOAD DUP2 LT PUSH2 0x1C3 JUMPI PUSH2 0x1C2 PUSH2 0x829 JUMP JUMPDEST JUMPDEST SWAP1 PUSH1 0x0 MSTORE PUSH1 0x20 PUSH1 0x0 KECCAK256 SWAP1 PUSH1 0x4 MUL ADD PUSH1 0x40 MLOAD DUP1 PUSH1 0x80 ADD PUSH1 0x40 MSTORE SWAP1 DUP2 PUSH1 0x0 DUP3 ADD SLOAD DUP2 MSTORE PUSH1 0x20 ADD PUSH1 0x1 DUP3 ADD SLOAD DUP2 MSTORE PUSH1 0x20 ADD PUSH1 0x2 DUP3 ADD SLOAD DUP2 MSTORE PUSH1 0x20 ADD PUSH1 0x3 DUP3 ADD PUSH1 0x0 SWAP1 SLOAD SWAP1 PUSH2 0x100 EXP SWAP1 DIV PUSH20 0xFFFFFFFFFFFFFFFFFFFFFFFFFFFFFFFFFFFFFFFF AND PUSH20 0xFFFFFFFFFFFFFFFFFFFFFFFFFFFFFFFFFFFFFFFF AND PUSH20 0xFFFFFFFFFFFFFFFFFFFFFFFFFFFFFFFFFFFFFFFF AND DUP2 MSTORE POP POP DUP3 DUP3 DUP2 MLOAD DUP2 LT PUSH2 0x263 JUMPI PUSH2 0x262 PUSH2 0x829 JUMP JUMPDEST JUMPDEST PUSH1 0x20 MUL PUSH1 0x20 ADD ADD DUP2 SWAP1 MSTORE POP DUP1 DUP1 PUSH1 0x1 ADD SWAP2 POP POP PUSH2 0x19C JUMP JUMPDEST POP DUP1 SWAP4 POP POP POP POP SWAP3 SWAP2 POP POP JUMP JUMPDEST PUSH1 0x0 PUSH1 0x40 MLOAD DUP1 PUSH1 0x80 ADD PUSH1 0x40 MSTORE DUP1 DUP5 DUP2 MSTORE PUSH1 0x20 ADD DUP4 DUP2 MSTORE PUSH1 0x20 ADD TIMESTAMP DUP2 MSTORE PUSH1 0x20 ADD CALLER PUSH20 0xFFFFFFFFFFFFFFFFFFFFFFFFFFFFFFFFFFFFFFFF AND DUP2 MSTORE POP SWAP1 DUP1 PUSH1 0x1 DUP2 SLOAD ADD DUP1 DUP3 SSTORE DUP1 SWAP2 POP POP PUSH1 0x1 SWAP1 SUB SWAP1 PUSH1 0x0 MSTORE PUSH1 0x20 PUSH1 0x0 KECCAK256 SWAP1 PUSH1 0x4 MUL ADD PUSH1 0x0 SWAP1 SWAP2 SWAP1 SWAP2 SWAP1 SWAP2 POP PUSH1 0x0 DUP3 ADD MLOAD DUP2 PUSH1 0x0 ADD SSTORE PUSH1 0x20 DUP3 ADD MLOAD DUP2 PUSH1 0x1 ADD SSTORE PUSH1 0x40 DUP3 ADD MLOAD DUP2 PUSH1 0x2 ADD SSTORE PUSH1 0x60 DUP3 ADD MLOAD DUP2 PUSH1 0x3 ADD PUSH1 0x0 PUSH2 0x100 EXP DUP2 SLOAD DUP2 PUSH20 0xFFFFFFFFFFFFFFFFFFFFFFFFFFFFFFFFFFFFFFFF MUL NOT AND SWAP1 DUP4 PUSH20 0xFFFFFFFFFFFFFFFFFFFFFFFFFFFFFFFFFFFFFFFF AND MUL OR SWAP1 SSTORE POP POP POP DUP1 PUSH32 0x2B48F8682D51D601B5631ABD134B6BD5B85873BE4FB792C499BC2EE30D1A2A30 DUP4 CALLER PUSH1 0x40 MLOAD PUSH2 0x383 SWAP3 SWAP2 SWAP1 PUSH2 0x858 JUMP JUMPDEST PUSH1 0x40 MLOAD DUP1 SWAP2 SUB SWAP1 LOG2 POP POP JUMP JUMPDEST PUSH1 0x0 DUP2 DUP2 SLOAD DUP2 LT PUSH2 0x39F JUMPI PUSH1 0x0 DUP1 REVERT JUMPDEST SWAP1 PUSH1 0x0 MSTORE PUSH1 0x20 PUSH1 0x0 KECCAK256 SWAP1 PUSH1 0x4 MUL ADD PUSH1 0x0 SWAP2 POP SWAP1 POP DUP1 PUSH1 0x0 ADD SLOAD SWAP1 DUP1 PUSH1 0x1 ADD SLOAD SWAP1 DUP1 PUSH1 0x2 ADD SLOAD SWAP1 DUP1 PUSH1 0x3 ADD PUSH1 0x0 SWAP1 SLOAD SWAP1 PUSH2 0x100 EXP SWAP1 DIV PUSH20 0xFFFFFFFFFFFFFFFFFFFFFFFFFFFFFFFFFFFFFFFF AND SWAP1 POP DUP5 JUMP JUMPDEST PUSH1 0x40 MLOAD DUP1 PUSH1 0x80 ADD PUSH1 0x40 MSTORE DUP1 PUSH1 0x0 DUP1 NOT AND DUP2 MSTORE PUSH1 0x20 ADD PUSH1 0x0 DUP1 NOT AND DUP2 MSTORE PUSH1 0x20 ADD PUSH1 0x0 DUP2 MSTORE PUSH1 0x20 ADD PUSH1 0x0 PUSH20 0xFFFFFFFFFFFFFFFFFFFFFFFFFFFFFFFFFFFFFFFF AND DUP2 MSTORE POP SWAP1 JUMP JUMPDEST PUSH1 0x0 DUP2 SWAP1 POP SWAP2 SWAP1 POP JUMP JUMPDEST PUSH2 0x446 DUP2 PUSH2 0x433 JUMP JUMPDEST DUP3 MSTORE POP POP JUMP JUMPDEST PUSH1 0x0 PUSH1 0x20 DUP3 ADD SWAP1 POP PUSH2 0x461 PUSH1 0x0 DUP4 ADD DUP5 PUSH2 0x43D JUMP JUMPDEST SWAP3 SWAP2 POP POP JUMP JUMPDEST PUSH1 0x0 DUP1 REVERT JUMPDEST PUSH2 0x475 DUP2 PUSH2 0x433 JUMP JUMPDEST DUP2 EQ PUSH2 0x480 JUMPI PUSH1 0x0 DUP1 REVERT JUMPDEST POP JUMP JUMPDEST PUSH1 0x0 DUP2 CALLDATALOAD SWAP1 POP PUSH2 0x492 DUP2 PUSH2 0x46C JUMP JUMPDEST SWAP3 SWAP2 POP POP JUMP JUMPDEST PUSH1 0x0 DUP1 PUSH1 0x40 DUP4 DUP6 SUB SLT ISZERO PUSH2 0x4AF JUMPI PUSH2 0x4AE PUSH2 0x467 JUMP JUMPDEST JUMPDEST PUSH1 0x0 PUSH2 0x4BD DUP6 DUP3 DUP7 ADD PUSH2 0x483 JUMP JUMPDEST SWAP3 POP POP PUSH1 0x20 PUSH2 0x4CE DUP6 DUP3 DUP7 ADD PUSH2 0x483 JUMP JUMPDEST SWAP2 POP POP SWAP3 POP SWAP3 SWAP1 POP JUMP JUMPDEST PUSH1 0x0 DUP2 MLOAD SWAP1 POP SWAP2 SWAP1 POP JUMP JUMPDEST PUSH1 0x0 DUP3 DUP3 MSTORE PUSH1 0x20 DUP3 ADD SWAP1 POP SWAP3 SWAP2 POP POP JUMP JUMPDEST PUSH1 0x0 DUP2 SWAP1 POP PUSH1 0x20 DUP3 ADD SWAP1 POP SWAP2 SWAP1 POP JUMP JUMPDEST PUSH1 0x0 DUP2 SWAP1 POP SWAP2 SWAP1 POP JUMP JUMPDEST PUSH2 0x517 DUP2 PUSH2 0x504 JUMP JUMPDEST DUP3 MSTORE POP POP JUMP JUMPDEST PUSH2 0x526 DUP2 PUSH2 0x433 JUMP JUMPDEST DUP3 MSTORE POP POP JUMP JUMPDEST PUSH1 0x0 PUSH20 0xFFFFFFFFFFFFFFFFFFFFFFFFFFFFFFFFFFFFFFFF DUP3 AND SWAP1 POP SWAP2 SWAP1 POP JUMP JUMPDEST PUSH1 0x0 PUSH2 0x557 DUP3 PUSH2 0x52C JUMP JUMPDEST SWAP1 POP SWAP2 SWAP1 POP JUMP JUMPDEST PUSH2 0x567 DUP2 PUSH2 0x54C JUMP JUMPDEST DUP3 MSTORE POP POP JUMP JUMPDEST PUSH1 0x80 DUP3 ADD PUSH1 0x0 DUP3 ADD MLOAD PUSH2 0x583 PUSH1 0x0 DUP6 ADD DUP3 PUSH2 0x50E JUMP JUMPDEST POP PUSH1 0x20 DUP3 ADD MLOAD PUSH2 0x596 PUSH1 0x20 DUP6 ADD DUP3 PUSH2 0x50E JUMP JUMPDEST POP PUSH1 0x40 DUP3 ADD MLOAD PUSH2 0x5A9 PUSH1 0x40 DUP6 ADD DUP3 PUSH2 0x51D JUMP JUMPDEST POP PUSH1 0x60 DUP3 ADD MLOAD PUSH2 0x5BC PUSH1 0x60 DUP6 ADD DUP3 PUSH2 0x55E JUMP JUMPDEST POP POP POP POP JUMP JUMPDEST PUSH1 0x0 PUSH2 0x5CE DUP4 DUP4 PUSH2 0x56D JUMP JUMPDEST PUSH1 0x80 DUP4 ADD SWAP1 POP SWAP3 SWAP2 POP POP JUMP JUMPDEST PUSH1 0x0 PUSH1 0x20 DUP3 ADD SWAP1 POP SWAP2 SWAP1 POP JUMP JUMPDEST PUSH1 0x0 PUSH2 0x5F2 DUP3 PUSH2 0x4D8 JUMP JUMPDEST PUSH2 0x5FC DUP2 DUP6 PUSH2 0x4E3 JUMP JUMPDEST SWAP4 POP PUSH2 0x607 DUP4 PUSH2 0x4F4 JUMP JUMPDEST DUP1 PUSH1 0x0 JUMPDEST DUP4 DUP2 LT ISZERO PUSH2 0x638 JUMPI DUP2 MLOAD PUSH2 0x61F DUP9 DUP3 PUSH2 0x5C2 JUMP JUMPDEST SWAP8 POP PUSH2 0x62A DUP4 PUSH2 0x5DA JUMP JUMPDEST SWAP3 POP POP PUSH1 0x1 DUP2 ADD SWAP1 POP PUSH2 0x60B JUMP JUMPDEST POP DUP6 SWAP4 POP POP POP POP SWAP3 SWAP2 POP POP JUMP JUMPDEST PUSH1 0x0 PUSH1 0x20 DUP3 ADD SWAP1 POP DUP2 DUP2 SUB PUSH1 0x0 DUP4 ADD MSTORE PUSH2 0x65F DUP2 DUP5 PUSH2 0x5E7 JUMP JUMPDEST SWAP1 POP SWAP3 SWAP2 POP POP JUMP JUMPDEST PUSH2 0x670 DUP2 PUSH2 0x504 JUMP JUMPDEST DUP2 EQ PUSH2 0x67B JUMPI PUSH1 0x0 DUP1 REVERT JUMPDEST POP JUMP JUMPDEST PUSH1 0x0 DUP2 CALLDATALOAD SWAP1 POP PUSH2 0x68D DUP2 PUSH2 0x667 JUMP JUMPDEST SWAP3 SWAP2 POP POP JUMP JUMPDEST PUSH1 0x0 DUP1 PUSH1 0x40 DUP4 DUP6 SUB SLT ISZERO PUSH2 0x6AA JUMPI PUSH2 0x6A9 PUSH2 0x467 JUMP JUMPDEST JUMPDEST PUSH1 0x0 PUSH2 0x6B8 DUP6 DUP3 DUP7 ADD PUSH2 0x67E JUMP JUMPDEST SWAP3 POP POP PUSH1 0x20 PUSH2 0x6C9 DUP6 DUP3 DUP7 ADD PUSH2 0x67E JUMP JUMPDEST SWAP2 POP POP SWAP3 POP SWAP3 SWAP1 POP JUMP JUMPDEST PUSH1 0x0 PUSH1 0x20 DUP3 DUP5 SUB SLT ISZERO PUSH2 0x6E9 JUMPI PUSH2 0x6E8 PUSH2 0x467 JUMP JUMPDEST JUMPDEST PUSH1 0x0 PUSH2 0x6F7 DUP5 DUP3 DUP6 ADD PUSH2 0x483 JUMP JUMPDEST SWAP2 POP POP SWAP3 SWAP2 POP POP JUMP JUMPDEST PUSH2 0x709 DUP2 PUSH2 0x504 JUMP JUMPDEST DUP3 MSTORE POP POP JUMP JUMPDEST PUSH2 0x718 DUP2 PUSH2 0x54C JUMP JUMPDEST DUP3 MSTORE POP POP JUMP JUMPDEST PUSH1 0x0 PUSH1 0x80 DUP3 ADD SWAP1 POP PUSH2 0x733 PUSH1 0x0 DUP4 ADD DUP8 PUSH2 0x700 JUMP JUMPDEST PUSH2 0x740 PUSH1 0x20 DUP4 ADD DUP7 PUSH2 0x700 JUMP JUMPDEST PUSH2 0x74D PUSH1 0x40 DUP4 ADD DUP6 PUSH2 0x43D JUMP JUMPDEST PUSH2 0x75A PUSH1 0x60 DUP4 ADD DUP5 PUSH2 0x70F JUMP JUMPDEST SWAP6 SWAP5 POP POP POP POP POP JUMP JUMPDEST PUSH32 0x4E487B7100000000000000000000000000000000000000000000000000000000 PUSH1 0x0 MSTORE PUSH1 0x11 PUSH1 0x4 MSTORE PUSH1 0x24 PUSH1 0x0 REVERT JUMPDEST PUSH1 0x0 PUSH2 0x79D DUP3 PUSH2 0x433 JUMP JUMPDEST SWAP2 POP PUSH2 0x7A8 DUP4 PUSH2 0x433 JUMP JUMPDEST SWAP3 POP DUP3 DUP3 ADD SWAP1 POP DUP1 DUP3 GT ISZERO PUSH2 0x7C0 JUMPI PUSH2 0x7BF PUSH2 0x763 JUMP JUMPDEST JUMPDEST SWAP3 SWAP2 POP POP JUMP JUMPDEST PUSH1 0x0 PUSH2 0x7D1 DUP3 PUSH2 0x433 JUMP JUMPDEST SWAP2 POP PUSH2 0x7DC DUP4 PUSH2 0x433 JUMP JUMPDEST SWAP3 POP DUP3 DUP3 SUB SWAP1 POP DUP2 DUP2 GT ISZERO PUSH2 0x7F4 JUMPI PUSH2 0x7F3 PUSH2 0x763 JUMP JUMPDEST JUMPDEST SWAP3 SWAP2 POP POP JUMP JUMPDEST PUSH32 0x4E487B7100000000000000000000000000000000000000000000000000000000 PUSH1 0x0 MSTORE PUSH1 0x41 PUSH1 0x4 MSTORE PUSH1 0x24 PUSH1 0x0 REVERT JUMPDEST PUSH32 0x4E487B7100000000000000000000000000000000000000000000000000000000 PUSH1 0x0 MSTORE PUSH1 0x32 PUSH1 0x4 MSTORE PUSH1 0x24 PUSH1 0x0 REVERT JUMPDEST PUSH1 0x0 PUSH1 0x40 DUP3 ADD SWAP1 POP PUSH2 0x86D PUSH1 0x0 DUP4 ADD DUP6 PUSH2 0x700 JUMP JUMPDEST PUSH2 0x87A PUSH1 0x20 DUP4 ADD DUP5 PUSH2 0x70F JUMP JUMPDEST SWAP4 SWAP3 POP POP POP JUMP INVALID LOG2 PUSH5 0x6970667358 0x22 SLT KECCAK256 EXTCODECOPY SMOD CALLDATALOAD 0xB0 PUSH13 0xDEAE2427D617B2FA86C9F2D2F3 SWAP15 0xC6 PUSH2 0xA9CC 0xB8 PUSH4 0x6D7035FD DUP2 MUL NUMBER PUSH5 0x736F6C6343 STOP ADDMOD XOR STOP CALLER "},"methodIdentifiers":{"entries(uint256)":"b30906d4","entryCount()":"0cbb0f83","getEntries(uint256,uint256)":"478e8dad","log(bytes32,bytes32)":"4c72b998"}}}}}