{
  "_format": "hh-sol-artifact-1",
  "contractName": "SpendingPolicy",
  "sourceName": "contracts/SpendingPolicy.sol",
  "abi": [
    {
      "inputs": [
        {
          "internalType": "address",
          "name": "_agent",
          "type": "address"
        },
        {
          "internalType": "uint256",
          "name": "_maxPerTx",
          "type": "uint256"
        },
        {
          "internalType": "uint256",
          "name": "_maxPerDay",
          "type": "uint256"
        }
      ],
      "stateMutability": "nonpayable",
      "type": "constructor"
    },
    {
      "anonymous": false,
      "inputs": [
        {
          "indexed": false,
          "internalType": "uint256",
          "name": "maxPerTx",
          "type": "uint256"
        },
        {
          "indexed": false,
          "internalType": "uint256",
          "name": "maxPerDay",
          "type": "uint256"
        }
      ],
      "name": "PolicyUpdated",
      "type": "event"
    },
    {
      "anonymous": false,
      "inputs": [
        {
          "indexed": false,
          "internalType": "string",
          "name": "service",
          "type": "string"
        },
        {
          "indexed": false,
          "internalType": "bool",
          "name": "allowed",
          "type": "bool"
        }
      ],
      "name": "ServiceToggled",
      "type": "event"
    },
    {
      "anonymous": false,
      "inputs": [
        {
          "indexed": true,
          "internalType": "address",
          "name": "agent",
          "type": "address"
        },
        {
          "indexed": false,
          "internalType": "uint256",
          "name": "amount",
          "type": "uint256"
        },
        {
          "indexed": false,
          "internalType": "string",
          "name": "service",
          "type": "string"
        }
      ],
      "name": "SpendRecorded",
      "type": "event"
    },
    {
      "inputs": [],
      "name": "agent",
      "outputs": [
        {
          "internalType": "address",
          "name": "",
          "type": "address"
        }
      ],
      "stateMutability": "view",
      "type": "function"
    },
    {
      "inputs": [
        {
          "internalType": "string",
          "name": "",
          "type": "string"
        }
      ],
      "name": "allowedServices",
      "outputs": [
        {
          "internalType": "bool",
          "name": "",
          "type": "bool"
        }
      ],
      "stateMutability": "view",
      "type": "function"
    },
    {
      "inputs": [],
      "name": "dailySpent",
      "outputs": [
        {
          "internalType": "uint256",
          "name": "",
          "type": "uint256"
        }
      ],
      "stateMutability": "view",
      "type": "function"
    },
    {
      "inputs": [],
      "name": "lastResetDay",
      "outputs": [
        {
          "internalType": "uint256",
          "name": "",
          "type": "uint256"
        }
      ],
      "stateMutability": "view",
      "type": "function"
    },
    {
      "inputs": [],
      "name": "maxPerDay",
      "outputs": [
        {
          "internalType": "uint256",
          "name": "",
          "type": "uint256"
        }
      ],
      "stateMutability": "view",
      "type": "function"
    },
    {
      "inputs": [],
      "name": "maxPerTx",
      "outputs": [
        {
          "internalType": "uint256",
          "name": "",
          "type": "uint256"
        }
      ],
      "stateMutability": "view",
      "type": "function"
    },
    {
      "inputs": [],
      "name": "owner",
      "outputs": [
        {
          "internalType": "address",
          "name": "",
          "type": "address"
        }
      ],
      "stateMutability": "view",
      "type": "function"
    },
    {
      "inputs": [
        {
          "internalType": "uint256",
          "name": "amount",
          "type": "uint256"
        },
        {
          "internalType": "string",
          "name": "service",
          "type": "string"
        }
      ],
      "name": "recordSpend",
      "outputs": [],
      "stateMutability": "nonpayable",
      "type": "function"
    },
    {
      "inputs": [],
      "name": "remainingDailyBudget",
      "outputs": [
        {
          "internalType": "uint256",
          "name": "",
          "type": "uint256"
        }
      ],
      "stateMutability": "view",
      "type": "function"
    },
    {
      "inputs": [
        {
          "internalType": "uint256",
          "name": "_maxPerTx",
          "type": "uint256"
        },
        {
          "internalType": "uint256",
          "name": "_maxPerDay",
          "type": "uint256"
        }
      ],
      "name": "setPolicy",
      "outputs": [],
      "stateMutability": "nonpayable",
      "type": "function"
    },
    {
      "inputs": [
        {
          "internalType": "string",
          "name": "service",
          "type": "string"
        },
        {
          "internalType": "bool",
          "name": "allowed",
          "type": "bool"
        }
      ],
      "name": "toggleService",
      "outputs": [],
      "stateMutability": "nonpayable",
      "type": "function"
    }
  ],
  "bytecode": "0x60806040523480156200001157600080fd5b50604051620011fe380380620011fe83398181016040528101906200003791906200018b565b336000806101000a81548173ffffffffffffffffffffffffffffffffffffffff021916908373ffffffffffffffffffffffffffffffffffffffff16021790555082600160006101000a81548173ffffffffffffffffffffffffffffffffffffffff021916908373ffffffffffffffffffffffffffffffffffffffff16021790555081600281905550806003819055506201518042620000d7919062000216565b6005819055505050506200024e565b600080fd5b600073ffffffffffffffffffffffffffffffffffffffff82169050919050565b60006200011882620000eb565b9050919050565b6200012a816200010b565b81146200013657600080fd5b50565b6000815190506200014a816200011f565b92915050565b6000819050919050565b620001658162000150565b81146200017157600080fd5b50565b60008151905062000185816200015a565b92915050565b600080600060608486031215620001a757620001a6620000e6565b5b6000620001b78682870162000139565b9350506020620001ca8682870162000174565b9250506040620001dd8682870162000174565b9150509250925092565b7f4e487b7100000000000000000000000000000000000000000000000000000000600052601260045260246000fd5b6000620002238262000150565b9150620002308362000150565b925082620002435762000242620001e7565b5b828204905092915050565b610fa0806200025e6000396000f3fe608060405234801561001057600080fd5b50600436106100a95760003560e01c80635cc91ab9116100715780635cc91ab91461015257806361ee798b146101705780638da5cb5b1461018e578063e049958d146101ac578063f5ff5c76146101c8578063f968adbe146101e6576100a9565b80630bc6b89c146100ae5780631259a5c8146100cc5780631b903eda146100ea5780632a1fad7c1461010657806359cc0be314610136575b600080fd5b6100b6610204565b6040516100c3919061073b565b60405180910390f35b6100d461020a565b6040516100e1919061073b565b60405180910390f35b61010460048036038101906100ff91906107fb565b610210565b005b610120600480360381019061011b919061099c565b610464565b60405161012d9190610a00565b60405180910390f35b610150600480360381019061014b9190610a1b565b61049a565b005b61015a610573565b604051610167919061073b565b60405180910390f35b610178610579565b604051610185919061073b565b60405180910390f35b6101966105cc565b6040516101a39190610a9c565b60405180910390f35b6101c660048036038101906101c19190610ae3565b6105f0565b005b6101d06106f6565b6040516101dd9190610a9c565b60405180910390f35b6101ee61071c565b6040516101fb919061073b565b60405180910390f35b60045481565b60055481565b600160009054906101000a900473ffffffffffffffffffffffffffffffffffffffff1673ffffffffffffffffffffffffffffffffffffffff163373ffffffffffffffffffffffffffffffffffffffff16146102a0576040517f08c379a000000000000000000000000000000000000000000000000000000000815260040161029790610ba0565b60405180910390fd5b600682826040516102b2929190610bf0565b908152602001604051809103902060009054906101000a900460ff1661030d576040517f08c379a000000000000000000000000000000000000000000000000000000000815260040161030490610c55565b60405180910390fd5b600254831115610352576040517f08c379a000000000000000000000000000000000000000000000000000000000815260040161034990610cc1565b60405180910390fd5b600062015180426103639190610d3f565b905060055481111561037f576000600481905550806005819055505b600354846004546103909190610d70565b11156103d1576040517f08c379a00000000000000000000000000000000000000000000000000000000081526004016103c890610df0565b60405180910390fd5b83600460008282546103e39190610d70565b92505081905550600160009054906101000a900473ffffffffffffffffffffffffffffffffffffffff1673ffffffffffffffffffffffffffffffffffffffff167f6cc5703604d253a9dccdc791bd81ece1138b016ca9b0c2bcad17b04dd6b0497d85858560405161045693929190610e3d565b60405180910390a250505050565b6006818051602081018201805184825260208301602085012081835280955050505050506000915054906101000a900460ff1681565b60008054906101000a900473ffffffffffffffffffffffffffffffffffffffff1673ffffffffffffffffffffffffffffffffffffffff163373ffffffffffffffffffffffffffffffffffffffff1614610528576040517f08c379a000000000000000000000000000000000000000000000000000000000815260040161051f90610ebb565b60405180910390fd5b81600281905550806003819055507f63c8deaadb48ec01d875ab470a80546d1869c7a6e8d2094bde97b6c587c5007c8282604051610567929190610edb565b60405180910390a15050565b60035481565b600080620151804261058b9190610d3f565b90506005548111156105a2576003549150506105c9565b600454600354116105b45760006105c5565b6004546003546105c49190610f04565b5b9150505b90565b60008054906101000a900473ffffffffffffffffffffffffffffffffffffffff1681565b60008054906101000a900473ffffffffffffffffffffffffffffffffffffffff1673ffffffffffffffffffffffffffffffffffffffff163373ffffffffffffffffffffffffffffffffffffffff161461067e576040517f08c379a000000000000000000000000000000000000000000000000000000000815260040161067590610ebb565b60405180910390fd5b8060068484604051610691929190610bf0565b908152602001604051809103902060006101000a81548160ff0219169083151502179055507f47952fa12644cde59aa8dd7e372771f802de15642bc5204de71cb8a7978c51a08383836040516106e993929190610f38565b60405180910390a1505050565b600160009054906101000a900473ffffffffffffffffffffffffffffffffffffffff1681565b60025481565b6000819050919050565b61073581610722565b82525050565b6000602082019050610750600083018461072c565b92915050565b6000604051905090565b600080fd5b600080fd5b61077381610722565b811461077e57600080fd5b50565b6000813590506107908161076a565b92915050565b600080fd5b600080fd5b600080fd5b60008083601f8401126107bb576107ba610796565b5b8235905067ffffffffffffffff8111156107d8576107d761079b565b5b6020830191508360018202830111156107f4576107f36107a0565b5b9250929050565b60008060006040848603121561081457610813610760565b5b600061082286828701610781565b935050602084013567ffffffffffffffff81111561084357610842610765565b5b61084f868287016107a5565b92509250509250925092565b600080fd5b6000601f19601f8301169050919050565b7f4e487b7100000000000000000000000000000000000000000000000000000000600052604160045260246000fd5b6108a982610860565b810181811067ffffffffffffffff821117156108c8576108c7610871565b5b80604052505050565b60006108db610756565b90506108e782826108a0565b919050565b600067ffffffffffffffff82111561090757610906610871565b5b61091082610860565b9050602081019050919050565b82818337600083830152505050565b600061093f61093a846108ec565b6108d1565b90508281526020810184848401111561095b5761095a61085b565b5b61096684828561091d565b509392505050565b600082601f83011261098357610982610796565b5b813561099384826020860161092c565b91505092915050565b6000602082840312156109b2576109b1610760565b5b600082013567ffffffffffffffff8111156109d0576109cf610765565b5b6109dc8482850161096e565b91505092915050565b60008115159050919050565b6109fa816109e5565b82525050565b6000602082019050610a1560008301846109f1565b92915050565b60008060408385031215610a3257610a31610760565b5b6000610a4085828601610781565b9250506020610a5185828601610781565b9150509250929050565b600073ffffffffffffffffffffffffffffffffffffffff82169050919050565b6000610a8682610a5b565b9050919050565b610a9681610a7b565b82525050565b6000602082019050610ab16000830184610a8d565b92915050565b610ac0816109e5565b8114610acb57600080fd5b50565b600081359050610add81610ab7565b92915050565b600080600060408486031215610afc57610afb610760565b5b600084013567ffffffffffffffff811115610b1a57610b19610765565b5b610b26868287016107a5565b93509350506020610b3986828701610ace565b9150509250925092565b600082825260208201905092915050565b7f6e6f74206167656e740000000000000000000000000000000000000000000000600082015250565b6000610b8a600983610b43565b9150610b9582610b54565b602082019050919050565b60006020820190508181036000830152610bb981610b7d565b9050919050565b600081905092915050565b6000610bd78385610bc0565b9350610be483858461091d565b82840190509392505050565b6000610bfd828486610bcb565b91508190509392505050565b7f73657276696365206e6f7420616c6c6f77656400000000000000000000000000600082015250565b6000610c3f601383610b43565b9150610c4a82610c09565b602082019050919050565b60006020820190508181036000830152610c6e81610c32565b9050919050565b7f65786365656473207065722d7478206c696d6974000000000000000000000000600082015250565b6000610cab601483610b43565b9150610cb682610c75565b602082019050919050565b60006020820190508181036000830152610cda81610c9e565b9050919050565b7f4e487b7100000000000000000000000000000000000000000000000000000000600052601260045260246000fd5b7f4e487b7100000000000000000000000000000000000000000000000000000000600052601160045260246000fd5b6000610d4a82610722565b9150610d5583610722565b925082610d6557610d64610ce1565b5b828204905092915050565b6000610d7b82610722565b9150610d8683610722565b9250828201905080821115610d9e57610d9d610d10565b5b92915050565b7f65786365656473206461696c79206c696d697400000000000000000000000000600082015250565b6000610dda601383610b43565b9150610de582610da4565b602082019050919050565b60006020820190508181036000830152610e0981610dcd565b9050919050565b6000610e1c8385610b43565b9350610e2983858461091d565b610e3283610860565b840190509392505050565b6000604082019050610e52600083018661072c565b8181036020830152610e65818486610e10565b9050949350505050565b7f6e6f74206f776e65720000000000000000000000000000000000000000000000600082015250565b6000610ea5600983610b43565b9150610eb082610e6f565b602082019050919050565b60006020820190508181036000830152610ed481610e98565b9050919050565b6000604082019050610ef0600083018561072c565b610efd602083018461072c565b9392505050565b6000610f0f82610722565b9150610f1a83610722565b9250828203905081811115610f3257610f31610d10565b5b92915050565b60006040820190508181036000830152610f53818587610e10565b9050610f6260208301846109f1565b94935050505056fea2646970667358221220bf29aa3be2fd81e183e8bebbff6486e758343da729d5ecd57b576baae920bf6164736f6c63430008180033",
  "linkReferences": {},
  "deployedLinkReferences": {}
}