{
  "_format": "hh-sol-artifact-1",
  "contractName": "AuditLog",
  "sourceName": "contracts/AuditLog.sol",
  "abi": [
    {
      "anonymous": false,
      "inputs": [
        {
          "indexed": true,
          "internalType": "bytes32",
          "name": "circuitId",
          "type": "bytes32"
        },
        {
          "indexed": false,
          "internalType": "bytes32",
          "name": "payloadHash",
          "type": "bytes32"
        },
        {
          "indexed": false,
          "internalType": "address",
          "name": "relay",
          "type": "address"
        }
      ],
      "name": "EntryLogged",
      "type": "event"
    },
    {
      "inputs": [
        {
          "internalType": "uint256",
          "name": "",
          "type": "uint256"
        }
      ],
      "name": "entries",
      "outputs": [
        {
          "internalType": "bytes32",
          "name": "payloadHash",
          "type": "bytes32"
        },
        {
          "internalType": "bytes32",
          "name": "circuitId",
          "type": "bytes32"
        },
        {
          "internalType": "uint256",
          "name": "timestamp",
          "type": "uint256"
        },
        {
          "internalType": "address",
          "name": "relay",
          "type": "address"
        }
      ],
      "stateMutability": "view",
      "type": "function"
    },
    {
      "inputs": [],
      "name": "entryCount",
      "outputs": [
        {
          "internalType": "uint256",
          "name": "",
          "type": "uint256"
        }
      ],
      "stateMutability": "view",
      "type": "function"
    },
    {
      "inputs": [
        {
          "internalType": "uint256",
          "name": "offset",
          "type": "uint256"
        },
        {
          "internalType": "uint256",
          "name": "limit",
          "type": "uint256"
        }
      ],
      "name": "getEntries",
      "outputs": [
        {
          "components": [
            {
              "internalType": "bytes32",
              "name": "payloadHash",
              "type": "bytes32"
            },
            {
              "internalType": "bytes32",
              "name": "circuitId",
              "type": "bytes32"
            },
            {
              "internalType": "uint256",
              "name": "timestamp",
              "type": "uint256"
            },
            {
              "internalType": "address",
              "name": "relay",
              "type": "address"
            }
          ],
          "internalType": "struct AuditLog.LogEntry[]",
          "name": "",
          "type": "tuple[]"
        }
      ],
      "stateMutability": "view",
      "type": "function"
    },
    {
      "inputs": [
        {
          "internalType": "bytes32",
          "name": "payloadHash",
          "type": "bytes32"
        },
        {
          "internalType": "bytes32",
          "name": "circuitId",
          "type": "bytes32"
        }
      ],
      "name": "log",
      "outputs": [],
      "stateMutability": "nonpayable",
      "type": "function"
    }
  ],
  "bytecode": "0x608060405234801561001057600080fd5b506108b7806100206000396000f3fe608060405234801561001057600080fd5b506004361061004c5760003560e01c80630cbb0f8314610051578063478e8dad1461006f5780634c72b9981461009f578063b30906d4146100bb575b600080fd5b6100596100ee565b604051610066919061044c565b60405180910390f35b61008960048036038101906100849190610498565b6100fa565b6040516100969190610645565b60405180910390f35b6100b960048036038101906100b49190610693565b610288565b005b6100d560048036038101906100d091906106d3565b61038f565b6040516100e5949392919061071e565b60405180910390f35b60008080549050905090565b60606000828461010a9190610792565b90506000805490508111156101225760008054905090505b600084821161013257600061013f565b848261013e91906107c6565b5b905060008167ffffffffffffffff81111561015d5761015c6107fa565b5b60405190808252806020026020018201604052801561019657816020015b6101836103ef565b81526020019060019003908161017b5790505b50905060005b8281101561027b57600081886101b29190610792565b815481106101c3576101c2610829565b5b90600052602060002090600402016040518060800160405290816000820154815260200160018201548152602001600282015481526020016003820160009054906101000a900473ffffffffffffffffffffffffffffffffffffffff1673ffffffffffffffffffffffffffffffffffffffff1673ffffffffffffffffffffffffffffffffffffffff168152505082828151811061026357610262610829565b5b6020026020010181905250808060010191505061019c565b5080935050505092915050565b600060405180608001604052808481526020018381526020014281526020013373ffffffffffffffffffffffffffffffffffffffff16815250908060018154018082558091505060019003906000526020600020906004020160009091909190915060008201518160000155602082015181600101556040820151816002015560608201518160030160006101000a81548173ffffffffffffffffffffffffffffffffffffffff021916908373ffffffffffffffffffffffffffffffffffffffff1602179055505050807f2b48f8682d51d601b5631abd134b6bd5b85873be4fb792c499bc2ee30d1a2a308333604051610383929190610858565b60405180910390a25050565b6000818154811061039f57600080fd5b90600052602060002090600402016000915090508060000154908060010154908060020154908060030160009054906101000a900473ffffffffffffffffffffffffffffffffffffffff16905084565b6040518060800160405280600080191681526020016000801916815260200160008152602001600073ffffffffffffffffffffffffffffffffffffffff1681525090565b6000819050919050565b61044681610433565b82525050565b6000602082019050610461600083018461043d565b92915050565b600080fd5b61047581610433565b811461048057600080fd5b50565b6000813590506104928161046c565b92915050565b600080604083850312156104af576104ae610467565b5b60006104bd85828601610483565b92505060206104ce85828601610483565b9150509250929050565b600081519050919050565b600082825260208201905092915050565b6000819050602082019050919050565b6000819050919050565b61051781610504565b82525050565b61052681610433565b82525050565b600073ffffffffffffffffffffffffffffffffffffffff82169050919050565b60006105578261052c565b9050919050565b6105678161054c565b82525050565b608082016000820151610583600085018261050e565b506020820151610596602085018261050e565b5060408201516105a9604085018261051d565b5060608201516105bc606085018261055e565b50505050565b60006105ce838361056d565b60808301905092915050565b6000602082019050919050565b60006105f2826104d8565b6105fc81856104e3565b9350610607836104f4565b8060005b8381101561063857815161061f88826105c2565b975061062a836105da565b92505060018101905061060b565b5085935050505092915050565b6000602082019050818103600083015261065f81846105e7565b905092915050565b61067081610504565b811461067b57600080fd5b50565b60008135905061068d81610667565b92915050565b600080604083850312156106aa576106a9610467565b5b60006106b88582860161067e565b92505060206106c98582860161067e565b9150509250929050565b6000602082840312156106e9576106e8610467565b5b60006106f784828501610483565b91505092915050565b61070981610504565b82525050565b6107188161054c565b82525050565b60006080820190506107336000830187610700565b6107406020830186610700565b61074d604083018561043d565b61075a606083018461070f565b95945050505050565b7f4e487b7100000000000000000000000000000000000000000000000000000000600052601160045260246000fd5b600061079d82610433565b91506107a883610433565b92508282019050808211156107c0576107bf610763565b5b92915050565b60006107d182610433565b91506107dc83610433565b92508282039050818111156107f4576107f3610763565b5b92915050565b7f4e487b7100000000000000000000000000000000000000000000000000000000600052604160045260246000fd5b7f4e487b7100000000000000000000000000000000000000000000000000000000600052603260045260246000fd5b600060408201905061086d6000830185610700565b61087a602083018461070f565b939250505056fea26469706673582212203c0735b06cdeae2427d617b2fa86c9f2d2f39ec661a9ccb8636d7035fd81024364736f6c63430008180033",
  "linkReferences": {},
  "deployedLinkReferences": {}
}